:020000040800F2
:10000000E01C002051010008512700086B23000864
:1000100000000000000000000000000000000000E0
:10002000000000000000000000000000212800087F
:1000300000000000000000000F0100082D2800084B
:100040006301000863010008DD2700086301000860
:1000500063010008630100086301000863010008F0
:100060000000000063010008590600086301000851
:10007000630100086301000800000000630100083C
:100080000000000063010008000000000000000004
:100090000129000800000000630100086301000856
:1000A000630100086301000863010008A53000082F
:1000B0006301000863010008000000000000000068
:1000C0000448854600F0F4F80048004775330008FE
:1000D000C046C046E01C0020084B19680868203064
:1000E00080F30988022080F31488BFF36F8F3FBC30
:1000F000AE4608BC04BC62B61847000040000020B1
:10010000EFF3108072B6704780F310887047EFF3FA
:1001100009800E4B1A6820381060F0C044464D46E6
:1001200056465F46F0C008B572B603F0E7FF62B608
:100130000CBC116808681030F0C8A046A946B24649
:10014000BB4680F309882038F0C8184740000020DB
:100150000448804704480047FEE7FEE7FEE7FEE765
:10016000FEE7FEE7FD280008C100000830B50B4699
:10017000014600202022012409E00D46D5409D4281
:1001800005D31D469540491B254695404019154607
:10019000521E002DF1DC30BDF0B51FB40646002024
:1001A00082B005464024019100901BE0019922464F
:1001B0000F46304600F06BF8049A059B801A99416F
:1001C00010D310461946224600F051F8361A8F41D6
:1001D0000197224601200021009F00F048F83818BE
:1001E0004D4100902046641E0028DFDC019B0098F2
:1001F0002946324607B0F0BD03460B439B0703D0A8
:1002000009E008C9121F08C0042AFAD203E00B78DB
:100210000370401C491C521EF9D27047D2B201E053
:100220000270401C491EFBD270470022F6E710B551
:1002300013460A4604461946FFF7F0FF204610BD54
:1002400010B5002200E0521C835C8C5CA34201D1FB
:10025000002BF8D1D8B2E1B2401A10BD03460A789B
:100260000270401C491C002AF9D11846704710B58D
:10027000202A04DB0146203A9140002010BD914025
:1002800020239C1A0346E3401943904010BD10B54B
:10029000202A04DB0846203AD040002110BD0B463E
:1002A000D340D0402024A21A91400843194610BDE3
:1002B000064C0125064E05E0E36807CC2B430C3CB9
:1002C00098471034B442F7D3FFF7FEFEAC4A00085B
:1002D000CC4A000838B50446064805490068FFF7CF
:1002E00045FF604300E0401E00900028FBD138BD70
:1002F00040420F003C00002010B51CA002F036FF69
:10030000FF20F53003F002F81B48017B2B292CD18C
:10031000417B432929D1817B432926D1C17B4C29AB
:1003200023D1017C4B2920D1817F407F0A223038A4
:100330005043114A30380818203211780A243039D5
:1003400053786143303959181379D278C0B2303AB2
:100350006243303A9A18C9B2D2B2172805D83B295D
:1003600003D83B2A01D802F041FA10BD41542B4377
:10037000434C4B3F0D0A00009C02002010B505E0E5
:1003800026A002F0F3FE642002F0C0FF25A1284859
:10039000FFF756FF0028F3D105E026A002F0E6FEA5
:1003A000C82002F0B3FF26A12148FFF749FF00282B
:1003B000F3D105E02BA002F0D9FEC82002F0A6FF81
:1003C0002BA11B48FFF73CFF0028F3D105E030A02C
:1003D00002F0CCFEC82002F099FF30A11448FFF7CC
:1003E0002FFF0028F3D135A002F0C0FEC82002F094
:1003F0008DFF35A10E48FFF723FF00280CD13AA04E
:1004000002F0B4FEC82002F081FF3CA002F0AEFE74
:10041000C82002F07BFFE6E710BD000041540D0A42
:100420000000000041540D0A0D0A4F4B0D0A000058
:100430009C02002041542B4350494E3F0D0A0000BE
:1004400041542B4350494E3F0D0A0D0A2B4350494E
:100450004E3A2052454144590D0A0D0A4F4B0D0AA0
:100460000000000041542B435245473F0D0A000055
:1004700041542B435245473F0D0A0D0A2B43524529
:10048000473A20302C310D0A0D0A4F4B0D0A00005F
:1004900041542B43474154543F0D0A0041542B43D0
:1004A000474154543F0D0A0D0A2B43474154543AD7
:1004B00020310D0A0D0A4F4B0D0A000041542B4309
:1004C000494653520D0A000041542B4349465352AA
:1004D0000D0A0D0A2B434D45204552524F523A20EA
:1004E000330D0A0D0A00000041542B435354543D70
:1004F00022222C22222C22220D0A000041542B43BE
:10050000494943520D0A000070B505E013A002F0FE
:100510002DFEC82002F0FAFE14A11A48FFF790FE43
:100520000028F3D118A002F021FEFF202D3002F0A8
:10053000EDFE19A002F01AFE4B24E400204602F062
:10054000E5FE104D05E014A002F010FE204602F07A
:10055000DDFE687A3128F6D170BD000041542B438E
:100560004E54504349443D310D0A000041542B4341
:100570004E54504349443D310D0A0D0A4F4B0D0A6C
:10058000000000009C02002041542B534150425275
:100590003D312C310D0A000041542B434E54500D77
:1005A0000A0000000026114D114C01277F02287817
:1005B000012816D12E70A0782B2812D1E0784D2872
:1005C0000FD1207953280CD16079552809D1A07911
:1005D000422806D1E0793A2803D13946054800F08F
:1005E000ACFB642002F05EFFE1E700001C0000208D
:1005F0009C0200200004005010B508A002F0B6FDD7
:10060000C82002F083FE09A11248FFF719FE002856
:1006100001D0002010BD012010BD000041542B4D21
:1006200051545453544154550D0A000041542B4D1C
:1006300051545453544154550D0A0D0A2B4D5154E5
:10064000545354415455203A310D0A0D0A4F4B0D65
:100650000A0000009C02002010B5034800F0C0F919
:10066000024800F0BDF910BD540200200C02002029
:1006700030B5446C1C252C400125A540046C6560F8
:10068000046863608368102B036803D09960006876
:10069000C26030BD9A600068C16030BD72B6FEE7CE
:1006A000F8B506460D464036317C01290DD00121B2
:1006B000317401688A68520709D5416D20221143BF
:1006C0004165002030740120F8BD0220F8BD174BB1
:1006D0006A68D80547109A42154C8A6A2B6812D06E
:1006E0005B035B0B1A438A622968490305D5A1683D
:1006F0000143A1600A20FFF7EDFD2868800312D5B1
:10070000A06838430EE05B035B0B9A438A6229685A
:10071000490302D5A1688143A1602868800302D5FE
:10072000A068B843A06000203074F8BD011000003C
:100730000027014070B5040006D0606D26460025F4
:100740004036002802D006E0012070BDA565357452
:10075000204600F0D3F8606DC00603D42168886895
:10076000400705D5606D1021084360653574EBE7DF
:10077000606DFF2201329043022210436065886859
:100780008207920F5B48012A02D10A68D2072BD157
:10079000032362689B079A4205D05B429A4202D0CB
:1007A0005B009A4209D10A69920092080A612168A5
:1007B0000A6963681A430A610CE00A6992009208A8
:1007C0000A6181680F2292049143816081686268A6
:1007D000114381602168CA6818239A43CA6021685E
:1007E000CA68A3681A43CA6081680122520691430D
:1007F00081608168A28E5206114381602068816801
:10080000C90004D481680122120711438160206865
:10081000C168394A1140C1602069E168022825D0C9
:1008200000200143204620300278037B52035B0006
:100830001A431143226B1143A26992031143E269E7
:10084000D20311432268D3681943D160616A0A4612
:10085000FF3AC23A05D0A26A11432268D36819430D
:10086000D16042780121012A02D00BE00420D8E7B0
:100870000078002823D0606D202210436065A06DB1
:100880000843A065E06B012820681FD00169C907F3
:1008900003D0016949084900016120684169C9081C
:1008A000C900416120684169A26B11434161A5659E
:1008B000606D80088000401C6065002070BD20686D
:1008C000C26801231B041A43C260DBE70269FF23ED
:1008D0009B009A43026120680269236CA66C1A434C
:1008E000636C33431A430261206802690A43026160
:1008F000D3E70000002701401902FEFF10B586B0C3
:10090000044614216846FFF790FC0E49206888428F
:1009100016D10D48416B421511434163C16A012252
:100920001143C162C06A69461040059008200090DA
:1009300003200190002002900520000700F020F91C
:1009400006B010BD002401400010024030B5014641
:1009500020314A790023022A04D00422C2630B7199
:10096000012030BD026814680E25AC431460026893
:100970001468640864001460446C1C221440012252
:100980001546006CA54045604A7118460B7130BD94
:1009900070B50024014620314A79022A03D004218F
:1009A000C163012418E0026813680E25AB4313608D
:1009B000026813685B085B001360436C1C221340E1
:1009C000012215469D40036C5D604A7100220A7148
:1009D000816B002900D08847204670BDC06B7047EE
:1009E000F0B4016C0D6801680C68466C1C2304228D
:1009F0001E401746B7402F420ED067070CD50C6833
:100A0000A40602D40C6894430C60416C19408A40DF
:100A1000016C4A60016B1AE00227B74002462F4082
:100A20002032002F17D0A70715D50C68A40605D4CF
:100A30000C680A25AC430C6001215171446C022101
:100A40001C40036CA140596000211171C16A00294A
:100A500018D0F0BC08470827B7402F4212D024070F
:100A600010D50C680E25AC430C60446C01211C4071
:100A70000B46A340046C6360C16351710021117186
:100A8000416BE4E7F0BC704770B504003CD01F48F0
:100A9000256814212818FFF769FB800060641C4852
:100AA00020640221204620300246417129681948FD
:100AB000E3680140A068666918432369334318431B
:100AC000A3691843E3691843236A1843084328605D
:100AD0000121A0688903884210D00D488030836AC4
:100AE000656C1C210D400F26AE40B3438362656CDC
:100AF00063680D40816AAB400B4383620020E06372
:100B000001215171107170BD012070BDF8FFFDBF52
:100B1000000002400F80FFFFF8B504468C462030ED
:100B200001790025012909D00126067141790027A4
:100B3000012905D0077102252846F8BD0220F8BD1D
:100B400002214171E763206801684908490001609A
:100B500061462046FFF78CFD206B00282068016865
:100B600001D00E2205E00422914301602068016853
:100B70000A22114301602068016831430160DBE70C
:100B8000F8B5002303240125BDE032462E469E40E1
:100B9000B446324079D00E79B607B60F012E01D097
:100BA000022E17D186682746B6465E00B7400096EB
:100BB0007646BE43B646CF68009EB740764637437A
:100BC000876046686746BE430F79FF06FF0F9F4068
:100BD000374347600E79F643B6070ED0C6682746FE
:100BE000B4465E00B646B7406646BE43B4468F681C
:100BF0007646B74066463743C7600E79B607B60FEC
:100C0000022E14D1DE08B60036180096366A5F0749
:100C1000B446FE0E0F27B646B7406646BE43B446FE
:100C20000F697646B74066463743009E37620668CE
:100C30002746B4465E00B646B7406646BE430F79C7
:100C4000B446BF07BF0F7646B740664637430760D6
:100C50004E68B603B60F55D02E4F7E6B2E437E6383
:100C60009F082D4EBF00BE190096B6680F27B446E8
:100C70009E07360FB646B7406646BE4305273F0778
:100C8000B446B84202D1002715E03BE0234FB842FA
:100C900001D101270FE0224FB84201D102270AE01B
:100CA000204FB84201D1032705E01F4FB84201D1C0
:100CB000052700E006277646B74066463743009E84
:100CC000B7601A4EB6684F689643FF0200D51643C8
:100CD000164FBE60FE684F689643BF0200D51643AC
:100CE000124FFE607E684F689643BF0300D51643DF
:100CF0000E4F7E603E684F689643FF0300D5164353
:100D00000A4A16605B1C0A681646DA4000D03CE7C7
:100D1000F8BD000000100240000001400004005037
:100D200000080050000C0050001C0050000401405E
:100D30000069084000D001207047426913460B400B
:100D40001B0491430B4383617047002A01D08161EA
:100D5000704781627047000001488068704700005A
:100D60003000002070B504000FD0216815480860DD
:100D700021681548086003CC41602068083C216860
:100D80008860FFF7E9FF05460CE0012070BDFFF722
:100D9000E3FF401B2A2805D92068C068400701D01E
:100DA000032070BD2068C0684007F0D12068026948
:100DB000E1688A4201D0016101E00449016000203C
:100DC00070BD0000CCCC000055550000AAAA000060
:100DD000006802490160002070470000AAAA0000D4
:100DE00002488168027889188160704730000020CD
:100DF00010B5084800240168402211430160032017
:100E000000F00AF8002801D0012401E000F04CF8BD
:100E1000204610BD0020024030B50546014687B08F
:100E20000022142000F05EF8142000F04FF818485B
:100E3000416B04221143416305A9684600F0E0F9C3
:100E400000F00EFA00F00CFA1249FFF78FF9411E7C
:100E50001248114A0260124AC260416000210161D9
:100E6000816000F007FE04000FD10C4800F022FE64
:100E700004000AD1042D07D200222946142000F0D4
:100E800031F80848056000E00124204607B030BD75
:100E90000010024040420F0000080140C80300203B
:100EA000E70300003400002010B50748416B012221
:100EB00011434163816B02041143816303210022CA
:100EC000481F00F00FF810BD00100240002805DB9D
:100ED000C106C90E01208840014908607047000022
:100EE00000E100E010B502F077F910BD024801689A
:100EF000821511430160704700700040F8B5044648
:100F000000780027544D800674D5534E403EB06B98
:100F1000C00004D4B06BA9050843B06301274F4853
:100F20000168C90511D40168821511430160FFF7FA
:100F300013FF009005E0FFF70FFF0099401A6428A7
:100F400037D846480068C005F5D532680321090541
:100F500060680A400140914208D08103890F03294B
:100F600004D13168890301D50120F8BD2A69032124
:100F700009040A4022D0084090421FD02078800601
:100F800031D528692A6988430121C9040A432A61A5
:100F90002A698A432A612861C0050FD5FFF7DCFE64
:100FA000009008E0FFF7D8FE0099411A2C488142D2
:100FB00001D90320F8BD28698005F3D52078800683
:100FC00011D561688803800F032805D132680005B8
:100FD000824301400A433260286903226168120497
:100FE000114008432861002F04D0B16B0120000795
:100FF0008143B1632078C00705D0E868A168800804
:1010000080000843E8602078800705D5E8680C2157
:101010008843E1680843E8602078400706D5E8681F
:1010200003218902884321690843E860207800078A
:1010300006D5E86803210903884361690843E8602D
:101040002078000606D5E868032189048843A16951
:101050000843E8600020F8BD4010024000700040E6
:1010600088130000F8B50E46050038D05E480068C9
:10107000C007C00FB04214D25B4C2068400840004B
:1010800030432060FFF768FE074605E0FFF764FE87
:10109000C11B564881427AD82068C007C00FB042B1
:1010A000F4D12878524C800705D5E068F0218843B8
:1010B000A9680843E0602878C00752D06868022811
:1010C00006D0032807D0216801280AD0890504E04A
:1010D0002168890301E021688901002903DB0120DF
:1010E000F8BD4907F9E7E168890889000143E16033
:1010F000FFF732FE0746686802280AD0032814D09A
:1011000001281ED029E0FFF727FEC11B3748814286
:101110003DD8E0680007800F0228F4D121E0FFF7F6
:101120001BFEC11B3148814231D8E0680007800FA7
:101130000328F4D115E0FFF70FFEC11B2B488142B5
:1011400025D8E0680007800F0128F4D109E0FFF7F7
:1011500003FEC11B2548814219D8E0680007800FB3
:10116000F5D121480168C907C90FB14217D90168F3
:101170004908490031430160FFF7EEFD074608E0EA
:1011800005E0FFF7E9FDC11B1848814201D90320A2
:10119000F8BD15480068C007C00FB042F1D12878EB
:1011A000400706D5E068072109028843E96808433B
:1011B000E0602878000707D5E0680721C902884366
:1011C0002969C9000843E06000F05AF8E168094A5B
:1011D0000906090F515CC8400749086007480068C4
:1011E000FFF71AFEF8BD000000200240881300003F
:1011F00000100240B04900083C00002034000020EC
:1012000010B50F2202600C4AD3689B079B0F436006
:10121000D368F02423408360D46807231B021C405A
:10122000C460D268D2081A40026104480068C0074E
:10123000C00F086010BD00000010024000200240F6
:10124000044805490068C968044A4905490F515CCA
:10125000C84070473C00002000100240C949000807
:10126000044805490068C968044A8904490F515C6B
:10127000C84070473C00002000100240C9490008E7
:1012800070B51A4AD3681A490C2018408D000428FA
:101290000CD04E00082810D00C2810D05068000444
:1012A000410F0120C003491C884070BD1068C00672
:1012B00001D5084670BD284670BD304670BD980205
:1012C0000C4C000F205C1B029C0FD368641CDB03DA
:1012D00001D5314603E01268D20600D4294601F058
:1012E00055FF22460023FEF757FF70BD0010024055
:1012F00000093D00C0490008FEB505007ED0FE4C47
:10130000E7680C20E66807400120000406402878C2
:10131000C00747D0082F05D00C2F0AD101200004A8
:10132000864206D1206880033CD568680028E5D055
:1013300038E0012069680004814203D1216801433B
:10134000216011E0052301221B04920499422168C7
:1013500002D111432160F1E78143216021680140FE
:101360000091206890432060686800280DD0FFF746
:10137000F3FC009005E0FFF7EFFC0099401A6428A9
:101380007BD820688003F6D50CE0FFF7E5FC0090E1
:1013900005E0FFF7E1FC0099401A6428F0D82068C6
:1013A0008003F6D42878800756D50923E868042FEF
:1013B0000DD00C2F01D1002E09D000283CD021687F
:1013C000994301432160FFF7C7FC064628E02168E6
:1013D000490701D5002891D061681F22120291436C
:1013E0002A69120211436160216899430143216017
:1013F000FFF746FFE16809060A0F00E08BE1BF49ED
:10140000895CC840BE490860BE480068FFF704FD1B
:10141000002873D120E0FFF79FFC801B0228AFD883
:1014200020684007F7D560681F21090288432969B1
:101430000902084360600FE0206840084000206017
:10144000FFF78AFC064604E0FFF786FC801B0228B3
:1014500096D820684007F7D42878C00660D5002FBA
:101460000CD0A86900284AD02068FF210131084328
:101470002060FFF771FC06462EE0C1E02068800581
:1014800002D5A8690028A6D06068072149038843CF
:10149000296A084360606068297F0002000A090623
:1014A00008436060286A410B0120C003491C884042
:1014B000E16809060A0F9149895CC84090490860B3
:1014C00090480068FFF7A8FC002817D128E0FFF734
:1014D00043FC801B0228A2D820688005F7D56068ED
:1014E000072149038843296A084360606068297FAF
:1014F0000002000A09060843606011E0E2E021688A
:10150000FF20013081432160FFF726FC064604E0FE
:10151000FFF722FC801B022872D820688005F7D4D0
:101520002878794E000724D568690028306910D0E2
:10153000012108433061FFF70FFC009005E0FFF741
:101540000BFC0099401A02285AD830698007F6D55A
:101550000FE0400840003061FFF7FEFB009005E01F
:10156000FFF7FAFB0099401A022849D83069800732
:10157000F6D42878400766D500200290A06BC00002
:1015800006D4A06B012109070843A0630120029043
:101590005E480168C90511D40168821511430160D4
:1015A000FFF7DAFB009005E0FFF7D6FB0099401A41
:1015B000642825D855480068C005F5D5FF20AA68DD
:1015C0000130824203D131690143316111E00121CF
:1015D0008902002A07D005231B029A4203D13269EF
:1015E0000A433261EFE732698243326130698843EE
:1015F0003061A868002810D0FFF7AEFB009008E02B
:101600005FE0FFF7A9FB01460098091A40488142B4
:1016100057D830698005F4D50DE0FFF79DFB0090A9
:1016200006E0FFF799FB0099411A3948814248D8F2
:1016300030698005F5D40298002804D0A06B012100
:1016400009078843A063686A002866D00C2F3ED043
:10165000012636060228206805D0B0432060FFF737
:101660007BFB05462FE0B0432060FFF775FB074684
:1016700004E0FFF771FBC01B022822D8206880011C
:10168000F7D4E96AA86AE2680843296BFD231B04C2
:101690009A4311430843E060206830432060FFF71D
:1016A0005BFB054604E0FFF757FB401B022808D808
:1016B00020688001F7D530E0FFF74EFB401B022881
:1016C00001D90320FEBD20688001F5D425E0012862
:1016D000F8D0E06801210904AA6A014091421AD1B8
:1016E0000F218904EA6A0140914214D1032189053E
:1016F0000840296B88420DE000100240B049000804
:101700003C000020340000204010024000700040E7
:101710008813000001D00120FEBD0020FEBD0000A6
:10172000F7B5044636487D2182B009020068FEF70D
:101730001DFD02467D21C9004A432046203000920B
:101740000178012954D001210170022141702368E0
:10175000CA21596223685321596221688B68FF2589
:101760005E050023002E06DA009E761E009641D00C
:10177000CE687607F8D48E680127BF02BE438E601C
:101780002168CE6880273E401E4FF619CE60009239
:101790002168009A521E00922CD0CA685207F8D5D0
:1017A0008A68D208D2008A6021688A68049E32431F
:1017B0008A6022680399516113490E68012212055B
:1017C00016430E608E6816438E6021688A68012673
:1017D000B60332438A6021688A68361132438A60D0
:1017E00021684D62012141700370002005B0F0BDF9
:1017F0000220FBE74D620321417003700846F5E7C4
:101800003C0000207FFBFFFF000401407047000008
:1018100010B5044601200B4900054861216888681D
:1018200040040BD5C868400508D5C8688022104020
:10183000054A8018C8602046FFF7E8FF01202034E1
:10184000607010BD000401407FFBFFFF70B5040015
:1018500005D0254620356878002802D006E0012012
:1018600070BD00202870204600F046F80220687005
:101870002068C168C943C90637D5CA2141622168B9
:1018800053204862204600F06FFF002827D12068CF
:101890008168184A11408160216888686268A3697C
:1018A000104322691A43104388602168E068086188
:1018B000206801692289120411430161204600F069
:1018C00076FF00280BD12168CA6C92089200CA6486
:1018D0006269E16911432268D36C1943D1642268BB
:1018E000FF215162002801D070BD002001216970E4
:1018F00070BD0000BFFF8FFF10B500680849884227
:101900000DD10848016901229204114301610022AE
:1019100003210220FFF7E6FA0220FFF7D7FA10BDF5
:101920000028004040100240F8B507460446203722
:1019300038780D46012821D00120387002207870B7
:101940002068002A80681BD0400601D40020E8707F
:101950002878AE78000406436878E97800028905A3
:10196000084306432168CA20486221685320486220
:10197000204600F0F9FE002816D02DE00220F8BD28
:10198000400601D40020E870287800F0E2FE06044A
:10199000687800F0DEFE00020643A87800F0D9FE69
:1019A0000643E8788005DCE70E48064020680660BC
:1019B0002068816801229204914381602969E86866
:1019C000084321688A6810438860204600F0EFFED3
:1019D000002801D1012179702268FF215162002184
:1019E0003970F8BD7F7F7F0070B5044621680A48D2
:1019F000C860FFF7B1F97D260546F60006E0FFF75F
:101A0000ABF9401BB04201D9032070BD2068C0680B
:101A10008006F4D5002070BD5F7F0100F0B502465E
:101A20002032137E012B1ED001251576022353761A
:101A300006687468B3687027BC430F6827437760F3
:101A40000068AC07A04205D0084CA04202D0084C68
:101A5000A04204D180244968A3431943816055768C
:101A600000201076F0BD0220F0BD0000000801400B
:101A70000014014070B5050005D02C462034607E6E
:101A8000002802D006E0012070BD00202076284604
:101A900000F00FF802206076291D286800F03EFF54
:101AA0000120A077A076E07620776077607600202E
:101AB00070BD7047014620314A7E012A01D00120C5
:101AC000704702224A760268D36801210B43D36033
:101AD00000688A07904205D0074A904202D0074A20
:101AE000904204D182685207520F062A02D002683F
:101AF0000A430260002070470008014000140140C2
:101B0000704770B50446006801690025C94389071C
:101B1000002915DBC168C943890711D4E91E016199
:101B200001202076206880698007204602D0FFF7D8
:101B3000E7FF04E000F09EF8204600F031F925763A
:101B400020680169C943490717D4C168C9434907D7
:101B500013D40421C94301610220207620688069E2
:101B60008005800F204602D0FFF7CAFF04E000F096
:101B700081F8204600F014F9257620680169C943F0
:101B8000090716D4C168C943090712D40821C943FB
:101B90000161042020762068C0698007204602D0B9
:101BA000FFF7AEFF04E000F065F8204600F0F8F81B
:101BB000257620680169C943C90617D4C168C9439D
:101BC000C90613D41021C94301610820207620687A
:101BD000C0698005800F204602D0FFF791FF04E026
:101BE00000F048F8204600F0DBF82576206801690F
:101BF000C943C90708D1C168C943C90704D1891EAF
:101C00000161204600F0CEF820680169C943490609
:101C100009D4C168C943490605D44021C9430161BB
:101C2000204600F0C9F870BD10B586B004461421F6
:101C30006846FEF7FAFA0D492068884214D10C482C
:101C4000C16A01221143C162C06A69461040059011
:101C50008020009002200190002002900390052037
:101C600004900007FEF78CFF06B010BD0014014081
:101C7000001002407047F8B5064604462036307E14
:101C800000270D4601280ED001203076002A0CD006
:101C9000042A1BD0082A2FD00C2A3ED0012700206E
:101CA00030763846F8BD0220F8BD206800F062FEAC
:101CB00020688169082211438161206882690421BA
:101CC0008A43826120688169EA6812E0206800F036
:101CD00069FE206882690121C9020A438261206885
:101CE0008169012292029143816120688169EA68D9
:101CF000120211438161D2E7206800F06CFE206877
:101D0000C16908221143C1612068C26904218A4364
:101D1000C2612068C169EA6812E0206800F076FEBE
:101D20002068C1690122D2021143C1612068C269E1
:101D3000012189028A43C2612068C169EA681202EE
:101D40001143C161ABE770B5050005D02C462034C6
:101D5000607E002802D006E0012070BD00202076C1
:101D6000284600F00FF802206076291D286800F050
:101D7000D5FD0120A077A076E076207760776076A9
:101D8000002070BD00680449884204D10348416BBB
:101D900020221143416370470014014000100240AB
:101DA0007047000010B500680249884201D1FFF772
:101DB00017F810BD00080140704770477047F8B52C
:101DC0000446C06F254680352E6821688A68102732
:101DD0001206002A1BDA212819D1EFF31080012204
:101DE00082F310888A6880239A438A6080F310887F
:101DF000206F002808D0FEF7A9FD002804D0206F2E
:101E0000FEF7ECFD202824D0204600F09FFF21683B
:101E1000886840061BD5222E19D1EFF310800122CD
:101E200082F310888A6840239A438A6080F310887E
:101E3000606F002808D0FEF789FD002804D0606F8D
:101E4000FEF7CCFD202804D0204600F04FFF0020F4
:101E5000F8BD6F600320F8BD70470000F8B5026858
:101E60000446D06911689368A44D06462E40254665
:101E70008035002E71D0A24FDE07F60F0F4037439A
:101E80007ED0C70706D0CF0504D5012717626A6840
:101E90003A436A60820708D5DA0706D0276802222B
:101EA0003A626A6804273A436A60420708D5DA074B
:101EB00006D0236804221A626A6802231A436A6001
:101EC000020709D520220A40324305D023680822A0
:101ED0001A626B6813436B60020509D54A0107D586
:101EE00001222368D2021A626A6820231A436A60B8
:101EF0006A68002A39D0800606D5880604D5A16E06
:101F0000002901D020468847686821688968490609
:101F100002D4282108422DD0204600F0E7FE216897
:101F20008868400622D5EFF31080012282F31088E2
:101F30008A6840239A438A6080F31088606F002883
:101F400014D070498163606FFEF722FD00280CD029
:101F5000606F816B08E000E012E0860610D58E0607
:101F60000ED5A16EAFE020468847F8BD2046FFF7AA
:101F700073FFF8BD2046FFF76FFF00206860F8BDD3
:101F8000266E012E7DD1C6067BD5CE0679D51023CF
:101F9000136222689068264640064036002849DAD7
:101FA000616F086840680004000CE8D0378B8742F6
:101FB000E5D9708308680068800634D4EFF3108098
:101FC000012181F3108811681F01B943116080F36A
:101FD0001088EFF31080012181F3108821688A684E
:101FE000520852008A6080F31088EFF310800121BC
:101FF00081F3108821688A684027BA438A6080F399
:1020000010882020286000202066EFF31080012136
:1020100081F3108821680A689A430A6080F3108867
:10202000606FFEF793FC02206066308B718B401A64
:1020300081B234E0308B718B401A81B2708B0028F2
:102040009DD000299BD0EFF31080012686F31088E5
:102050001668FF272137BE43166080F31088EFF320
:102060001080012282F31088226896687608760034
:10207000966080F310882020286000202066A066EB
:1020800000E010E0EFF31080012282F31088226854
:1020900015689D43156080F3108802206066204615
:1020A000FFF78BFEF8BDC50208D55B0206D50120FF
:1020B000000510622046FFF781FEF8BD030606D535
:1020C0000B0604D5E16E002900D04CE7F8BD4006B0
:1020D000FCD54806FAD52046EFF31081012383F39F
:1020E000108813684024A343136081F310882021D3
:1020F000C1670021C16600F037F9F8BD0F08000084
:1021000020010004D12B000810B5040003D0E06FBB
:10211000002802D007E0012010BD002178200155E1
:10212000204600F027F82420E0672068016849086D
:1021300049000160204600F019FE0128ECD0606AD9
:10214000002802D0204600F07CFC2068416809226B
:10215000D20291434160206881682A2291438160C4
:1021600020680168012211430160204600F0CEFC86
:1021700010BD0000F0B587B0064614216846FEF792
:1021800054F82B493068884250D12A48416B0122CB
:10219000920311434163C16A01221143C162C06AC3
:1021A00000241040059003204002009002200327E5
:1021B00001A991C104200490052069460007FEF79B
:1021C000DFFC1E4D1C48AC60EC6081C5EC602C61EE
:1021D00080276C61AF60AC611848083DFEF754FC85
:1021E000002801D0FEF75AFA7567AE62134D124807
:1021F00048351438286003206860294610200831CB
:1022000091C16C61AC61EC6128462C62FEF73CFC2C
:10221000002801D0FEF742FA3567002203211B2077
:10222000AE62FEF75FFE1B20FEF750FE07B0F0BD6A
:102230000038014000100240300002400C02002033
:1022400070B580231B58202B01D0022070BD0029BF
:102250000BD0002A09D0012483682403A34206D1AD
:102260000369002B03D1CB0701D0012070BD0023EF
:1022700003660B4B04689C420ED063681B020BD5AF
:10228000EFF31083012585F3108825680126B60633
:102290003543256083F3108800F068FE70BD0000B0
:1022A0000048004070477047FFB50446C06F83B0D8
:1022B00017460D46202802D0022007B0F0BD002DA1
:1022C0000BD0002F09D00120A1680003814206D164
:1022D0002069002803D1E80701D00120EDE70021A3
:1022E000842001512120E067FEF736FD2646403666
:1022F0000190378277820120A1680003814202D1D8
:102300002069002802D02F46002511E000270FE0A9
:1023100000228021204600F07FFE002815D1002FEA
:1023200017D02168387888627F1C708A401E7082BE
:10233000708A019B002806980090E9D10022402174
:10234000204600F069FE00280AD02020E067032024
:10235000B3E728882168C005C00D8862AD1CE4E79A
:102360002020E0670020A8E77047FEE71D4DFF240E
:102370001D4E91341D4F01F0B9FE00F0A5F8FDF798
:10238000FDFFFEF7C1F801F01BF8FDF7B5FFFEF702
:1023900033F900281BD101F075F82A6814A03168C0
:1023A00000F0E4FE204600F0B1FF17A000F0DEFED2
:1023B000204600F0ABFF204600F0A8FF17483A681F
:1023C000016817A000F0D2FE204600F09FFF02F047
:1023D000E7F9002001F0E2FD7D20C00001F062F885
:1023E000C9E70000100000200C00002004000020BD
:1023F00041542B4D495053544152543D2225732290
:102400002C25730D0A00000041542B4D434F4E4EB6
:102410004543543D312C3132300D0A00000000207C
:1024200041542B4D5355423D22247379732F25730C
:102430002F25732F636D642F726571756573742F0B
:102440002B222C300D0A0000F8B5052700250126A7
:10245000134C3F07002801D0267002E020780028A6
:1024600005D001213846FEF763FC00280BD003207D
:1024700001F018F801213846FEF75AFC002800D078
:1024800026702846F8BD032001F00CF801213846DB
:10249000FEF74EFC0028F4D101252070F1E7000082
:1024A000140000200124074D64020020FFF7CCFF38
:1024B000002803D021462846FEF73FFC012000F00B
:1024C000F1FFF2E70004005000B587B01421684620
:1024D000FDF7ABFE0948C26A01210A43C262C06A25
:1024E00000910840059021200004019002910520F0
:1024F00069460007FEF744FB07B000BD001002402C
:102500001CB5002118480091164A01910260C16370
:102510001205816042608163012202610246C1604E
:1025200020321170FF235170C233436281621173F4
:1025300001638161042241634261C161FEF7FAF8DF
:10254000002801D0FEF7AAF8084800904002019048
:1025500069460548FEF7A4F8002801D0FEF79EF86A
:102560001CBD000000240140B40000200800000C45
:1025700008B50848016B012211430163006B032178
:102580001040009000220A20FEF7ACFC0A20FEF763
:102590009DFC08BD0010024010B500F0B1FD044ADA
:1025A0000021044800F0D0FF0349086010BD00007E
:1025B000FC4800082328000818000020F0B587B068
:1025C00014216846FDF731FE1748C26A04210A4308
:1025D000C262C26A0A400592C16A01242143C162F3
:1025E000C16A21400591C26A02210A43C262C06ADF
:1025F0000E4F08400E020590002231463846FEF785
:10260000A4FB00250520009469460007019502946B
:10261000FEF7B6FA0295694638460096039501948E
:10262000FEF7AEFA07B0F0BD001002400004005003
:1026300010B5084806490160002141600649C160A3
:102640008160FEF78FFB002801D0FEF727F810BD50
:102650000030004010010020FF0F000010B50F48AF
:102660000D4901607F22826000214160016141616A
:10267000FF228161C260C161FFF7E8F8002801D044
:10268000FEF70CF8042201210448FFF749F800285E
:1026900001D0FEF703F810BD002800402001002003
:1026A00010B586B0002405941A480494009401944F
:1026B0000294174903940160172184604160FF214F
:1026C000046172314461C160FFF73DFB002801D015
:1026D000FDF7E4FF049404A90E480594FFF79EF962
:1026E000002801D0FDF7DAFF60200090B9200190AA
:1026F00002940422694603940648FFF7BCFA0028B6
:1027000001D0FDF7CBFF0348FFF78EFA06B010BDEE
:10271000001401404401002010B50C480A49016032
:102720004B21C901416000218160C160016181616B
:10273000C1610C22016242614162FFF7E5FC0028A1
:1027400001D0FDF7ABFF10BD00380140840100202F
:10275000FEE7002102E00A38C0B2491C0A28FAD27A
:102760000907090E08437047F8B5044600680025BC
:10277000C168490619D4C16880221143C160FEF7BF
:10278000EBFA27460646203709E0FEF7E5FA811BFB
:102790007D20C000814202D9042078700125206884
:1027A000C068400601D4002DEFD02846F8BD70B5B2
:1027B000044600680025C16880229143C1602068FA
:1027C0008068800608D42046FFF70EF9002803D061
:1027D0000420203460700125284670BD10B50248E1
:1027E000FFF716F810BD00002001002070B586B07C
:1027F0000D460646144614216846FDF716FD684648
:10280000067045708470002269460448FFF78CF812
:10281000002801D0FDF742FF06B070BD2001002066
:102820007047012000F03EFEFBE7000010B5FDF709
:1028300067FC044601F0F0FE002803D001200349A4
:10284000000748602046FDF75FFC10BD00ED00E08A
:1028500010B59AB034216846FDF7E7FC14210DA8A5
:10286000FDF7E3FC1C2112A8FDF7DFFC21480168FD
:102870000324E402A143C21489180160FEF736FB69
:102880001D480169A14301610E200090FF20013025
:10289000029010200490022001210990002440059C
:1028A00005910C9003910A940B946846FEF724FD61
:1028B000002801D072B6FEE70F200D9003200E9085
:1028C0000F941094012111940DA8FEF7CBFB002862
:1028D00001D072B6FEE7212012900120000413906F
:1028E000149412A8FEF70AFB002801D072B6FEE786
:1028F0001AB010BD00700040401002407047000048
:1029000010B50448FFF7FDF803484188491C418091
:1029100010BD0000C80300201C00002070B5026834
:1029200001239B07114C124D984203D0A04201D0C5
:10293000A84203D17026B2434E683243984203D076
:10294000A04201D0A84204D103231B029A43CB68C2
:102950001A4380239A430B691A4302608A68C26251
:10296000096881620121416170BD000000080140D9
:102970000014014030B5026A520852000262026A35
:10298000456883697024A3439C080B68A400234313
:102990000224A2438C684560144383614968416303
:1029A000046230BD30B5026A10239A430262036AA2
:1029B0004568826973242402A2430C6824021443EC
:1029C000202293438A68456012011A438461496852
:1029D0008163026230BD30B5026AFF2301339A433E
:1029E0000262026A4568C3697024A3439C080B68AD
:1029F000A400234301246402A2438C68456024029E
:102A00001443C3614968C163046230BD30B5026AD2
:102A100001231B039A430262036A4568C269732457
:102A20002402A2430C68240214430122520393435C
:102A30008A68456012031A43C461496801640262EE
:102A400030BD10B5818CC90707D001684A680123E1
:102A50005B049A43836A1A434A60818C890707D5CD
:102A600001684A6801231B049A43C36A1A434A60F7
:102A7000818C490707D501684A6801239B049A4362
:102A8000036B1A434A60818C090707D501684A68BD
:102A90000123DB039A43436B1A434A60818CC906C6
:102AA00007D50268916801231B039943836B19437F
:102AB0009160818C890607D501688A6801235B03D0
:102AC0009A43C36B1A438A60818C490612D5036806
:102AD0005A6801210905046C8A4322435A60026C3A
:102AE0008A4207D10268516803235B059943436C0E
:102AF00019435160818C090607D501684A68012392
:102B0000DB04806C9A4302434A6010BDFEB5074661
:102B10000025803704467D60FEF71EF9019020688D
:102B20000068264600076036002819DA274800901A
:102B30000121002249052046019B00F06DFA002882
:102B40000ED0EFF31080012181F3108821680A680C
:102B500080239A430A6080F310882020E06729E0F0
:102B600020680068400728D51848009001210022FD
:102B700089052046019B00F04FFA00281DD0EFF395
:102B80001080012181F3108821680A68FF23213316
:102B90009A430A6080F31088EFF31080012181F3DB
:102BA000108821688A68520852008A6080F3108871
:102BB0002020386035760320FEBD2020E067386095
:102BC0002566656635760020FEBD0000FFFFFF012B
:102BD00010B5806A0022014640314A834A82FFF7DD
:102BE0003BF910BDF8B5846AE06F254680352E6844
:102BF0002168896800270906002906DA212804D1FE
:102C000052200753204600F0A1F820688068400653
:102C100006D5222E04D15A200753204600F066F82C
:102C200068681021084368602046FFF715F9F8BD71
:102C300070B501460968806A096800228906002982
:102C400038DB5A210A52EFF31081012383F31088F5
:102C500003681C68FF250135AC431C6081F31088B4
:102C6000EFF31081012383F3108803689C686408E4
:102C700064009C6081F31088EFF31081012383F3DB
:102C8000108803689C684025AC439C6081F31088E1
:102C9000202380210B50016E01290BD1EFF310810D
:102CA000012383F3108803681C681025AC431C6063
:102CB00081F310884266016E012902D0FFF7F2FA13
:102CC00070BD5821095AFFF778F870BD10B5806AB9
:102CD00001214166016E012902D0FFF7E4FA10BD1F
:102CE0005821095A4908FFF768F810BD10B5EFF3ED
:102CF0001081012282F3108802681368FF242134B6
:102D0000A343136081F31088EFF31081012282F353
:102D10001088026893685B085B00936081F31088F9
:102D2000016E01290BD1EFF31081012282F310888B
:102D3000026813681024A343136081F310882022D3
:102D400080210A5000210166816610BD10B5EFF3A5
:102D50001081012282F3108802681368C024A34303
:102D6000136081F310882021C16710BDF8B50446B7
:102D70002369A168E6691943636900250068334344
:102D80001943724A0368724E33400B430360206854
:102D9000416803231B039943E36819434160216899
:102DA000A069914201D0236A18438B680B26360232
:102DB000B34303438B606749236867488B420CD158
:102DC000C0688007800F06D0012839D0022835D08E
:102DD000032821D11EE001271FE060498B420AD160
:102DE000C0680C21084027D0042829D0082825D005
:102DF0000C2811D10EE093420ED1C168032080024D
:102E0000014019D001208002091A19D0091A15D0E1
:102E1000814201D1082700E010274F49504840392E
:102E20008600934234D1002F0CD0022F0DD0042FF6
:102E300010D0082F7ED128E00027EEE70227ECE72C
:102E40000427EAE7FEF7FCF906E00968C90605D49D
:102E5000304603E0FEF714FA002872D06268510091
:102E60005118814266D81103814263D3010E0602D4
:102E70005008002330185941FDF78EF9032109024B
:102E8000384A411A91425AD954E00120C003E5E77B
:102E90000122E369D20393422AD13B0000F08EF96C
:102EA0000906090C4A114A4A4A264A00FEF7C8F99F
:102EB00009E0FEF7D5F906E00968C90605D43046F1
:102EC00003E0FEF7DDF900283BD0616840004A08C6
:102ED0008018FDF74BF90146234A1039914229D851
:102EE000511C01400007400F084328E01046ECE762
:102EF0003B0000F063F90906090C1F111F1F1F2179
:102F00001F00FEF79DF909E0FEF7AAF906E009683F
:102F1000C90605D4304603E0FEF7B2F9002810D008
:102F200061684A081018FDF721F901460E4A103968
:102F3000914203D9012504E01046F1E780B22168EF
:102F4000C8600020A066E0662846F8BD0048004042
:102F5000F369FFEF00380140401002400044004098
:102F600000093D00FFFC0F00EFFF000070B50446B4
:102F7000416540300283002025468035686022216B
:102F80002960616F002919D0204BCB62636F204903
:102F90001963636F1F495963616F13468863666DD8
:102FA000216832462431606FFDF7B6FD002805D058
:102FB0001020686020202860012070BD2069002852
:102FC0000CD0EFF31080012181F3108821680A688A
:102FD000FF2301331A430A6080F31088EFF3108057
:102FE000012181F31088226893680B43936080F37A
:102FF0001088EFF3108081F3108821688A684023DD
:103000001A438A6080F31088002070BD312C0008BC
:10301000CD2C0008E52B0008FFB5064681B08036B0
:103020000546044660350A9F2EE0781C2CD0FDF73B
:1030300093FE0499401AB84214D8002F12D0206889
:103040000168490720D5C169C94309070CD408277D
:1030500007622046FFF74AFE7760002028760120AD
:1030600005B0F0BD0320FBE7C069C04300050BD4E9
:1030700001202168C00208622046FFF737FE2020A9
:10308000706000202876EDE72068C16902988843C7
:1030900005D0002103988142C7D00020E0E701213C
:1030A000F8E7000010B513480068C169C943C906B4
:1030B0001BD4114A01211170102101620D48FEF745
:1030C0007EFE96210D48FDF7B0F80C490B4896316D
:1030D000FDF7C4F8094896219630FDF7A6F8074990
:1030E000962296310348FFF7ABF80248FEF7B6FE8A
:1030F00010BD0000840100201C0000209C02002064
:1031000010B50E4A00210E4800F01EFA0D4C0B4A75
:103110002060243200210C4800F016FA074A606053
:1031200048320021094800F00FFA044AA0606C32CE
:103130000021074800F008FAE06010BD20490008AF
:103140006D2300082000002055310008A524000848
:10315000A5050008FFF76CFA0348FDF739FE642067
:1031600000F0A0F9F8E70000100100200FB410B53E
:1031700003A9044B044A029800F05FF810BC08BC95
:1031800004B0184759330008B0000020F8B5040C0B
:103190008BB2264682B25E430D0C1046370C584364
:1031A000360480190021794116466E43370C3604E7
:1031B0008019794126466E438919F8BD30B47446AA
:1031C000641E2578641CAB4200D21D46635D5B0023
:1031D000E31830BC184700008307FF22DB0E9A403B
:1031E0008907090E9940002808DB830809489B00DD
:1031F0001B18186890430843186070470007000FB9
:103200000838830804489B001B18D869904308437A
:10321000D861704700E400E000ED00E002E008C87B
:10322000121F08C1002AFAD170477047002001E040
:1032300001C1121F002AFBD17047FFB581B00546BE
:10324000002706E025280AD0049A039990476D1CB0
:103250007F1C28780028F5D1384605B0F0BD002243
:1032600069786D1C10462E2913D1697804226D1CD3
:103270002A2909D102996D1C01C9029109E00A238A
:103280005843303808186D1C29780B46303B092B01
:10329000F5D92B78002BDFD0632B07D0732B10D000
:1032A000049A1846039990477F1C2DE002996C46BA
:1032B0000B782370091D0291002161706E46012177
:1032C00004E0029940C902910021C94352070AD57E
:1032D000002400E0641C84420DDA8C42FADB325D8B
:1032E000002AF7D107E0002400E0641C8C42FCDBDC
:1032F000305D0028F9D13F1904E03078049A761C3B
:1033000003999047641EF8D26D1CA2E770B50024A3
:103310007D260546F60003E0304600F005F8641C03
:10332000AC42F9D370BD000070B50A4C002365694A
:103330001821A2694843A1699142FCD0914201D26F
:10334000521A01E06E1AB218D3180A468342F2D319
:1033500070BD000000E000E013B5044B0122694697
:103360000348FEF7A1FF00981CBD0000FFFF00000E
:1033700084010020FDF73CFDFFF76AFAFFF71EF914
:10338000FFF7F6F8FFF7BCF8FFF768F9FFF788F9E1
:10339000FFF7C2F9782208490848FEF751FF0748AD
:1033A0000068016810221143016000F095F8FFF7F2
:1033B000F3F800F0ABF8FEE73203002084010020B0
:1033C00070B5134C13A0A36822686168FFF7CEFEA6
:1033D000FF2591352846FFF799FF00F053F828465E
:1033E000FFF794FF12A02269E168FFF7BFFE2846AD
:1033F000FFF78CFF14A0FFF7B9FE2846FFF786FF02
:1034000006CC16A0FFF7B2FE2846FFF77FFF70BD7F
:103410000000002041542B4D434F4E4649473D226A
:103420002573222C222573222C222573220D0A00BB
:1034300041542B4D495053544152543D222573223F
:103440002C25730D0A00000041542B4D434F4E4E66
:103450004543543D312C3132300D0A0041542B4D3F
:103460005355423D22247379732F25732F25732FD3
:10347000636D642F726571756573742F2B222C3008
:103480000D0A000010B503A0FFF770FEC820FFF77B
:103490003DFF10BD41542B4D4950434C4F53450DFA
:1034A0000A00000010B5EFF3058100290ED1EFF3FB
:1034B0001081002903D007490968022906D0002499
:1034C000002801D000F052FD204610BD0524E44341
:1034D000FAE7000090000020EFF3058000280CD1EF
:1034E000EFF31081084A0029106801D0022804D0A7
:1034F000002805D00020C04370470520C043704716
:1035000001201060002070479000002010B5EFF3FC
:10351000058000280CD1EFF310810A4A00291068B9
:1035200001D0022804D0012805D00020C04310BDDE
:103530000520C04310BD0220106000F0A3FD002054
:1035400010BD000090000020F0B58C4685B0002131
:103550000391EFF30581002947D1EFF31081002992
:1035600003D02349096802293FD000283DD0802597
:1035700018210024002A2CD01368002B00D01C46F0
:103580009369002B03D019465B1E382B02D21379A6
:10359000DB0702D0002005B0F0BD5669002E00D038
:1035A000B5089768D368002F0ED05C2B1DD3126925
:1035B000002A1AD0002E18D06E4686C663462A46C8
:1035C000214600F0F0FF0FE0002B0ED11269002A17
:1035D0000BD103AA01920091AAB26346214600F0E2
:1035E000B9FF012801D0002003900398D3E7000021
:1035F00090000020F8B5134C0F4666690546206818
:10360000001D00F0DBFB681C07D1002F05D02168EE
:103610000D48091D00F022FCF8BD206875194560B1
:103620002168B54204D2A068091D00F0FFFBF8BD77
:103630006068091D00F0FAFB206B8542F7D2256314
:10364000F8BD000040000020F8080020F8B505464D
:1036500000F010FC294C2069401C20612068284F94
:10366000002803D0E069002825D02AE025602069E1
:10367000012826D1002614207043C01900F0C8FB91
:10368000761C382EF7D31F4800F0C2FB1D481430BB
:1036900000F0BEFB1B48283000F0BAFB19483C3054
:1036A00000F0B6FB1748503000F0B2FB15486060E0
:1036B0001430A06005E02068E96AC06A884200D83A
:1036C0002560E06A401CE0626864E86AA16988429B
:1036D00000D9A06114214843C019291D00F0BEFB88
:1036E00000F0D4FBE069002806D02068E96AC06ACF
:1036F000884201D200F0FAFBF8BD00004000002033
:1037000048040020A808002038B500F0B3FB114C95
:10371000A06800281AD1104800F07AFB0E48143037
:1037200000F076FB0C48206014300B4B60600020EA
:1037300028331A460090503210210A2000F032FD42
:10374000A060002802D005A100F0DCFB00F09EFB89
:1037500038BD00007C0000200C090020546D72511F
:103760000000000010B5026C0C46002A0CD0C168A5
:103770008B18C36081688B4201D2194601E0016851
:10378000C1602046FCF738FD10BDF8B5856B1746C3
:1037900004460026026C002A11D0002F19D0E068E0
:1037A000FCF72AFDE168206C091AE1602268914269
:1037B00002D2A168081AE060022F17D019E0206831
:1037C000002816D1A06800F085FF06460020A06002
:1037D0000FE06068FCF710FD216C606840186060C5
:1037E000A168884205D32068606002E0002D00D007
:1037F0006D1E6D1CA5633046F8BD10B50446403003
:10380000407E002805D0012806D0022807D072B6D5
:10381000FEE7206B00F048FB204600F045FB10BDA2
:1038200001210E48C902420705D0C01DC0080B4A3D
:10383000C000821A891A0A4A0023411809C20839AD
:10384000C908C900183A11604B600B600B1A0AC016
:1038500093600120C0075360D0607047DC100020E7
:10386000A40000200F4E104C104F11E000F002FB9E
:10387000F068C568281D00F0A1FA2069401E20618B
:10388000E068401EE06000F001FB2846FFF7B5FF4E
:10389000E0680028EAD138680128F9D900F026FB51
:1038A000F6E70000E4080020400000204804002063
:1038B00070B5049C1D46002909D022602164E06394
:1038C0000121204600F08EFC4034257370BD246039
:1038D000F4E7FFB581B097000C9C0D460A9EA52227
:1038E0003946206BFCF79AFC206B3F1FC019C008BB
:1038F000C0000090400701D072B6FEE7274640376F
:103900000021002D0CD0002023182A5C20331A75CA
:103910002A5C002A02D0401C1028F5D3F97001E07F
:1039200034200155382E00D33726E662E6640D4672
:10393000201D216500F077FA2046183000F073FA58
:1039400024613820801B6462A06165653D76049A1D
:103950000199009800F022FA20600B98002800D00E
:10396000046005B0F0BD000030B5114900E011461B
:103970000A688242FBD34B685C18844203D14068DA
:1039800018184860084643681C18944209D1084C2E
:10399000103C2468A24209D052689A1842600A6812
:1039A00012680260814200D0086030BD0460F9E70F
:1039B000A400002070B5002441600B4D00619142CD
:1039C00006D8D11A8269914206D2011D686807E0C3
:1039D0009A4203D2994201D3012403E0011D2868D1
:1039E00000F024FA204670BD7C00002010B504468B
:1039F00000F040FAA06B002804D0002400F046FA42
:103A0000204610BD0124F9E7F0B587B00125374EF7
:103A100063E00198002806DA029A04990398904717
:103A20000198002859DB039C6069002802D0201D02
:103A300000F0C4F905A800F0BFF8024601980300A1
:103A4000FFF7BCFB0A060606282E3F0606282E4B6B
:103A500027462037387A284338720298A1690346EE
:103A600041182046FFF7A6FF002836D0216A2046DD
:103A70008847387A400730D5002000900298A16925
:103A8000002342181946204600F00EFF002824D1DA
:103A900072B6FEE72034207A4008400020721CE015
:103AA00020462030017A294301720298A061002843
:103AB00005D0811813462046FFF77CFF0DE072B653
:103AC000FEE720462030017A8A0703D4204600F022
:103AD000EBF902E0490849000172002201A9B0682F
:103AE00000F088FC002894D107B0F0BD7C000020D5
:103AF000FEB50E46044600F0F9FA01A800F05CF8A5
:103B000005460198002802D000F04AFEFEBD214F74
:103B1000002E10D078680068002838D00026611B7D
:103B20003246B86800F000FA00F03AFE0028EDD105
:103B300000F0DCF9FEBDAC42F1D800F031FE38688F
:103B40002E46C068C568281D00F038F92946203186
:103B5000087A420714D5A869234601193246284637
:103B6000FFF728FF00280ED00020034601460090F2
:103B70002246284600F098FE002804D172B6FEE7DF
:103B8000400840000872296A28468847FEBD012681
:103B9000C5E700007C00002006484168096800294C
:103BA00005D04168C968C968496801637047002148
:103BB000C943FAE74000002070B5054600F026FD35
:103BC000064E04463069844203D200F009F8012011
:103BD00000E0002028602046346170BD7C00002099
:103BE000F8B5174D21E0C068C4680668201D00F0D4
:103BF000E5F8216A204688472820005D400714D553
:103C0000A0698019B04206D924616060211D28682E
:103C100000F00CF909E0002003460146009032460E
:103C2000204600F041FE002807D0286801680029DE
:103C3000D9D1696829606860F8BD72B6FEE70000F6
:103C40007C00002003480068401C72B600D0FEE7EC
:103C5000FEE70000AC000020074C20680168002946
:103C600007D0C06800210068FFF742FFFFF7CCFED5
:103C7000F3E701210020F7E77C000020F8B50446B7
:103C800000F0F8F8254640350526AE57274624377C
:103C90000BE0606A00280AD0384600F04FFD00288B
:103CA00001D000F0BFF9761E76B2002EF1DC0027BD
:103CB000FF436F7100F0EAF800F0DCF80426AE571D
:103CC0002046103000900BE0206900280AD00098B0
:103CD00000F034FD002801D000F0A4F9761E76B281
:103CE000002EF1DC2F7100F0D1F8F8BDF8B50546D3
:103CF000002700F0FBF9284E3068002801D1FFF7BB
:103D00008FFDF06805423FD1002D3DD00835680792
:103D100008D06807400F0821081A4519680701D024
:103D200072B6FEE7002D2FD0706885422CD81A4855
:103D3000103001460C6801E020460C466168A9423B
:103D400002D221680029F7D131688C421CD0076863
:103D50002168016060680837411B102908D9601983
:103D6000420701D072B6FEE741606560FFF7FCFDD7
:103D700061687068401A7060B268904200D2B060AA
:103D8000F0680143002003C400F00AFD780701D069
:103D900072B6FEE73846F8BD9400002010B5012445
:103DA000031F24061C601B1F1960191F024B0B60A8
:103DB000143940380A6010BD453C000843688268E9
:103DC00001699A60836842685A604A68824201D1F8
:103DD00082684A60002202610868401E0860086824
:103DE00070470000034B036018465C300860802079
:103DF00010607047240A0020044B036018465C30B2
:103E00000860FF200130106070470000800C002027
:103E10000146083100224160D243C16082600161E5
:103E200000210160704700210161704730B50B68C7
:103E30005A1C02D00246083202E0026904E022461F
:103E4000546825689D42FAD953684B6099608A602E
:103E5000516008610168491C016030BD42684A60D8
:103E600093688B6093685960916008610168491C90
:103E70000160704772B604480168491C0160BFF3D5
:103E80004F8FBFF36F8F7047AC0000200549086863
:103E9000002804D0401E086000D162B6704772B698
:103EA000FEE70000AC00002070B500281AD00446E0
:103EB0000D4D083C6068E968084201D172B6FEE722
:103EC0002268002A01D072B6FEE78843606000F0E5
:103ED0000DF960686968401868602046FFF744FD86
:103EE00000F05EFC70BD0000940000200120044939
:103EF00000074860BFF34F8FBFF36F8F704700001C
:103F000000ED00E010B5074B0022D4001C59002C36
:103F100003D0521C082AF8D310BDD2009950D118F2
:103F2000486010BD0804002070B515460E460446D2
:103F3000FFF7A0FF20464030042282560021521C89
:103F400000D1017105228256521C00D14171FFF748
:103F50009DFFA06B002805D120462A46314624301B
:103F600000F078F82046FFF789FE70BD10B502001A
:103F70000FD00948806B002801D072B6FEE700F030
:103F8000B5F800211046FFF735FB00F009FC0028CA
:103F900001D1FFF7ABFF10BD4000002070B5054612
:103FA000FFF768FF194C002D00D12568281DFFF789
:103FB00005FFA86A002803D028461830FFF7FEFE48
:103FC000E06A401CE0622068854207D1291D104844
:103FD000FFF744FFE068401CE06007E02069401EF6
:103FE00020612846FFF709FCFFF7D6FDFFF74EFFDB
:103FF000E069002809D02068854206D1A06B00281E
:1040000001D072B6FEE7FFF771FF70BD40000020DF
:10401000E408002002498A6A0260496941607047E9
:104020004000002001490120486270474000002004
:1040300010B50C46002809D0054909681831FFF76A
:10404000F5FE01212046FFF7D5FA10BD72B6FEE756
:104050004000002070B514460D4600280DD00849D8
:1040600009681831FFF7FAFE002C01D00025ED4356
:1040700021462846FFF7BEFA70BD72B6FEE7000083
:104080004000002030B587B00024039405AA04A99D
:1040900003A80494FFF7A6FE0499039800940191E5
:1040A000029000230DA10F48059A00F07CFA0E4DF6
:1040B0000028686310D000F0CBFB012803D0401C1F
:1040C0000AD172B6FEE772B60020C0432863012011
:1040D000E8616C6100F03EF807B030BD49444C45E2
:1040E0000000000065380008400000200248816B95
:1040F000491C8163704700004000002010B5134840
:10410000816B002902D00121416210BD0021416272
:1041100081690F4A02E0002915D0491E14234B4340
:10412000D358002BF7D014234B439A1853681446E6
:104130005B6808345360A34201D15B685360DA685E
:104140000260816110BD72B6FEE7000040000020F1
:104150004804002070B50F48016AFF221204114381
:104160000162016A1202114301620B4C00252561B4
:10417000A5610A487D21C9000068FBF7F7FF401ED2
:1041800060610720206106480560FBF7A5FF00205D
:1041900070BD000000ED00E000E000E03C00002009
:1041A000AC000020F8B5069D002806D0002B06D0F4
:1041B000002A08D0002904D009E072B6FEE772B6E2
:1041C000FEE772B6FEE7002901D072B6FEE7502482
:1041D0001C46012640339E712B460094FFF768FB76
:1041E0002046F8BD70B50D46040025D0FFF742FE0D
:1041F000216CE06B484321684118A1600021A16354
:1042000021686160E06B216C401E484321684118C1
:10421000E1600021C94320464030017141713038CE
:10422000002D0BD0FFF7F4FD20462430FFF7F0FD02
:10423000FFF72CFE012070BD72B6FEE72169002950
:10424000F6D000F07BFA0028F2D0FFF74FFEEFE740
:10425000FFB5002683B01D46040003D00498002853
:1042600002D006E072B6FEE7206C002801D072B6DC
:10427000FEE7022D04D1E06B012801D072B6FEE703
:1042800000F0B4F90027002804D10598002801D0D7
:1042900072B6FEE7FFF7EEFDA06BE16B884207D335
:1042A000022D05D00598002817D0002E18D01BE04D
:1042B0002A4620460499FFF768FA616A002903D06C
:1042C0002046243000F03AFA002801D0FFF70EFE15
:1042D000FFF7DCFD012007B0F0BDFFF7D7FD22E0BE
:1042E0006846FFF797FE0126FFF7D0FDFFF7FEFEB9
:1042F000FFF7C0FD2046403004214156491C00D143
:10430000077105214156491C00D14771FFF7BEFDD9
:1043100005A9684600F0F0F8002806D02046FFF70F
:10432000ADFC00F03DFA0020D5E7FFF7A3FDA06B40
:10433000E16B884210D1FFF7A9FD204610300599A6
:10434000FFF776FE2046FFF799FC00F029FA0028D7
:10435000A0D1FFF7CBFD9DE7FFF798FD2046FFF7C3
:104360008DFC00F01DFA95E7FFB581B01E460400F4
:1043700003D00298002802D006E072B6FEE7206C57
:10438000002801D072B6FEE7022E04D1E06B0128AE
:1043900001D072B6FEE7FBF7B3FE0090A06BE16BB5
:1043A000884208D3022E06D000240098FBF7ACFE0A
:1043B000204605B0F0BD204640300525455707464C
:1043C000324620460299FFF7E0F9681C03D06D1CC5
:1043D0007D710124E9E7606A0028FAD02046243084
:1043E00000F0ACF90028F4D003980028F1D00121A6
:1043F0000160EEE7F7B5002582B0040003D0039812
:10440000002802D006E072B6FEE7206C002801D03A
:1044100072B6FEE700F0EAF80026002804D10498FE
:10442000002801D072B6FEE7FFF724FDA76B002F2E
:1044300015D020460399FFF795F97F1EA7632069E1
:10444000002807D02046103000F078F9002801D06D
:10445000FFF74CFDFFF71AFD012005B0F0BD0498F1
:10446000002802D0002D03D006E0FFF70FFD27E063
:104470006846FFF7CFFD0125FFF708FDFFF736FE81
:10448000FFF7F8FC2046403004214156491C00D17A
:10449000067105214156491C00D14671FFF7F6FC13
:1044A00004A9684600F028F8002820460AD0FFF743
:1044B000E5FB00F075F92046FFF798FA0028B3D025
:1044C0000020CAE7FFF792FA00280ED020462430D9
:1044D0000499FFF7ADFD2046FFF7D0FB00F060F92F
:1044E0000028A1D1FFF702FD9EE72046FFF7C6FB9B
:1044F00000F056F998E70000F8B50C46050012D018
:10450000002C12D0FFF7B6FC114B5A696E68206878
:10451000911B471C0BD02F689B6A9F420CD0964280
:104520000AD8012404E072B6FEE772B6FEE7002462
:10453000FFF7ACFC2046F8BD884205D9401A206040
:104540002846FFF767FDF2E700202060E9E700005A
:1045500040000020FFB585B0164690000F9FFFF782
:10456000C5FB05001CD05C20FFF7C0FB040014D085
:1045700000205921256308550E9900910390019759
:1045800002943246089B06990598FFF7A2F9204647
:10459000FFF75CF8012009B0F0BD2846FFF784FC66
:1045A0000020C043F7E7F0B585B007460B9D0C9C93
:1045B0000A98002D15D0002C15D05C262563022505
:1045C00059263555002504AE0090019603950294B6
:1045D0003846FFF77EF92046FFF738F8049805B013
:1045E000F0BD72B6FEE772B6FEE700000648C1698C
:1045F000002904D0806B002803D0002070470120E0
:1046000070470220704700004000002001484069C8
:104610007047000040000020F8B52C4C0027A06B2C
:10462000002808D0206A401C2062606A002800D060
:1046300001273846F8BD6669761C66610ED1606850
:104640000068002801D072B6FEE76068A16861606A
:10465000A060A06A401CA062FFF79EFA206B864211
:104660000AD360680068002810D06068C068C56818
:10467000686886420DD2206320681421C06A4843CE
:10468000134908580128D0D90127CEE70020C0439C
:10469000F1E7281DFFF792FBA86A002803D02846FF
:1046A0001830FFF78BFBE86AA169884200D9A06146
:1046B0001421484306494018291DFFF7CFFBE86A3B
:1046C0002168C96A8842CCD30127CAE7400000208C
:1046D0004804002070B500210446002828D0154D5C
:1046E0002868844201D072B6FEE7206D002808D009
:1046F000401E2065E36CE26A9A4219D0002802D07D
:1047000016E072B6FEE7201DFFF758FBE06C38217B
:10471000E062081AA061E06AA969884200D9A8612C
:104720001421484304494018211DFFF797FB01213C
:10473000084670BD400000204804002070B5C068E5
:10474000C468002C0BD0204618300646FFF736FB15
:10475000104DA86B002804D031460F480EE072B609
:10476000FEE7201DFFF72AFBE06AA969884200D90D
:10477000A8611421484309494018211DFFF76EFB29
:10478000E06A2968C96A884202D90120686270BD5E
:10479000002070BD40000020D00800204804002008
:1047A000F8B5284C0025A06B2E46002808D0FFF74E
:1047B00061FBA06B401EA063A06B002802D03CE010
:1047C00072B6FEE72169204F00291CD135E0F86858
:1047D000C56828461830FFF7F1FA281DFFF7EEFAF2
:1047E000E86AA169884200D9A061142148431749A9
:1047F0004018291DFFF732FBE86A2168C96A884220
:1048000001D30120606238680028E0D1002D01D07A
:10481000FFF7C2F9256A002D09D00127FFF7FCFE3A
:10482000002800D067626D1EF8D100202062606A07
:10483000002802D00126FFF759FBFFF727FB30467F
:10484000F8BD000040000020D008002048040020EF
:1048500010B586B0FEF758FF0F4CA068002819D09D
:1048600000200390049005AA04A903A8FFF7C4FA46
:104870000220039A0499009002920191002307A15B
:104880000848059AFFF78FFEE060002802D001205B
:1048900006B010BD72B6FEE77C000020546D722099
:1048A00053766300593C0008F0B51D4685B00346B9
:1048B00000200A9E002B13D00F4CA768002F0DD0AC
:1048C00068460EC0062910DAFFF790FE022809D0CC
:1048D00000231A466946A068FFF7BAFC05B0F0BD90
:1048E00072B6FEE700233246F4E700232A46694603
:1048F0003846FFF739FDF1E77C0000206C4A0008DC
:1049000000000000000000000000000000000000A7
:10491000000200001800000000000000000000007D
:10492000904A0008000000000000000000000000A5
:1049300000000000800200002900000000000000CC
:1049400000000000784A000800000000000000009D
:1049500000000000000000008000000028000000AF
:104960000000000000000000A44A00080000000051
:1049700000000000000000000000000080000000B7
:10498000180000000000000000000000844A000839
:104990000000000000000000000000000000000017
:1049A000800000000A00000000000000000000007D
:1049B00000000000000000000102030406070809CF
:1049C000030406080C101820300000000001020348
:1049D000040000004C6967687453656E736F723130
:1049E0000000000031383833000000003539323320
:1049F0003239000076657273696F6E3D323031383E
:104A00002D31302D3331267265733D70726F6475B0
:104A10006374732532463539323332392665743D35
:104A200031393936383932323339266D6574686F29
:104A3000643D6D6435267369676E3D7633767558CF
:104A40004B6D6D73414339723349594E706B7067CA
:104A500067253344253344006D717474732E686583
:104A6000636C6F7564732E636F6D000064656661BF
:104A7000756C745461736B0057444F475461736B8A
:104A800000000000436D645265635461736B000065
:104A9000486172647761726573496E6974546173B9
:104AA0006B0000004B65795461736B00CC4A0008C1
:104AB00000000020B40000001C320008804B0008F9
:104AC000B40000202C1C00002C320008EC49000827
:104AD000D4490008F4490008584A0008E44900088D
:104AE00001000000000000000000000000000000C5
:104AF00000000000000000000000000001000000B5
:104B00000400000000000000000020000000000081
:104B10000000000000000000000000000000000095
:104B20000000000000000000000000000000000085
:104B30000000000000000000000000000000000075
:104B40000000000000000000000000000000000065
:104B50000000000000000000000000000000000055
:104B60000000000000000000000000000000000045
:104B70000000000000000000AAAAAAAA000000008D
:04000005080000C12E
:00000001FF
